{"project/contracts/Attendance.sol":{"Attendance":{"abi":[{"inputs":[],"stateMutability":"nonpayable","type":"constructor"},{"inputs":[{"internalType":"uint256","name":"index","type":"uint256"}],"name":"getAttendance","outputs":[{"internalType":"string","name":"","type":"string"},{"internalType":"string","name":"","type":"string"},{"internalType":"bool","name":"","type":"bool"}],"stateMutability":"view","type":"function"},{"inputs":[],"name":"getAttendanceCount","outputs":[{"internalType":"uint256","name":"","type":"uint256"}],"stateMutability":"view","type":"function"},{"inputs":[],"name":"getRecords","outputs":[{"components":[{"internalType":"string","name":"studentName","type":"string"},{"internalType":"string","name":"date","type":"string"},{"internalType":"bool","name":"isPresent","type":"bool"}],"internalType":"struct Attendance.Record[]","name":"","type":"tuple[]"}],"stateMutability":"view","type":"function"},{"inputs":[{"internalType":"string","name":"name","type":"string"},{"internalType":"string","name":"date","type":"string"},{"internalType":"bool","name":"status","type":"bool"}],"name":"markAttendance","outputs":[],"stateMutability":"nonpayable","type":"function"},{"inputs":[{"internalType":"uint256","name":"","type":"uint256"}],"name":"records","outputs":[{"internalType":"string","name":"studentName","type":"string"},{"internalType":"string","name":"date","type":"string"},{"internalType":"bool","name":"isPresent","type":"bool"}],"stateMutability":"view","type":"function"},{"inputs":[],"name":"teacher","outputs":[{"internalType":"address","name":"","type":"address"}],"stateMutability":"view","type":"function"}],"evm":{"bytecode":{"linkReferences":{},"object":"608060405234801561000f575f80fd5b503360015f6101000a81548173ffffffffffffffffffffffffffffffffffffffff021916908373ffffffffffffffffffffffffffffffffffffffff160217905550610fc58061005d5f395ff3fe608060405234801561000f575f80fd5b5060043610610060575f3560e01c806334461067146100645780638eff3c29146100965780639b3510d4146100b4578063a26f8011146100d0578063b4307e3f146100ee578063b46bff8914610120575b5f80fd5b61007e6004803603810190610079919061073b565b61013e565b60405161008d9392919061080a565b60405180910390f35b61009e61028a565b6040516100ab91906109b3565b60405180910390f35b6100ce60048036038101906100c99190610b29565b61041e565b005b6100d8610541565b6040516100e59190610bc0565b60405180910390f35b6101086004803603810190610103919061073b565b61054c565b6040516101179392919061080a565b60405180910390f35b6101286106d2565b6040516101359190610c18565b60405180910390f35b5f818154811061014c575f80fd5b905f5260205f2090600302015f91509050805f01805461016b90610c5e565b80601f016020809104026020016040519081016040528092919081815260200182805461019790610c5e565b80156101e25780601f106101b9576101008083540402835291602001916101e2565b820191905f5260205f20905b8154815290600101906020018083116101c557829003601f168201915b5050505050908060010180546101f790610c5e565b80601f016020809104026020016040519081016040528092919081815260200182805461022390610c5e565b801561026e5780601f106102455761010080835404028352916020019161026e565b820191905f5260205f20905b81548152906001019060200180831161025157829003601f168201915b505050505090806002015f9054906101000a900460ff16905083565b60605f805480602002602001604051908101604052809291908181526020015f905b82821015610415578382905f5260205f2090600302016040518060600160405290815f820180546102dc90610c5e565b80601f016020809104026020016040519081016040528092919081815260200182805461030890610c5e565b80156103535780601f1061032a57610100808354040283529160200191610353565b820191905f5260205f20905b81548152906001019060200180831161033657829003601f168201915b5050505050815260200160018201805461036c90610c5e565b80601f016020809104026020016040519081016040528092919081815260200182805461039890610c5e565b80156103e35780601f106103ba576101008083540402835291602001916103e3565b820191905f5260205f20905b8154815290600101906020018083116103c657829003601f168201915b50505050508152602001600282015f9054906101000a900460ff161515151581525050815260200190600101906102ac565b50505050905090565b60015f9054906101000a900473ffffffffffffffffffffffffffffffffffffffff1673ffffffffffffffffffffffffffffffffffffffff163373ffffffffffffffffffffffffffffffffffffffff16146104ad576040517f08c379a00000000000000000000000000000000000000000000000000000000081526004016104a490610cd8565b60405180910390fd5b5f6040518060600160405280858152602001848152602001831515815250908060018154018082558091505060019003905f5260205f2090600302015f909190919091505f820151815f0190816105049190610e93565b50602082015181600101908161051a9190610e93565b506040820151816002015f6101000a81548160ff0219169083151502179055505050505050565b5f8080549050905090565b6060805f805f858154811061056457610563610f62565b5b905f5260205f2090600302016040518060600160405290815f8201805461058a90610c5e565b80601f01602080910402602001604051908101604052809291908181526020018280546105b690610c5e565b80156106015780601f106105d857610100808354040283529160200191610601565b820191905f5260205f20905b8154815290600101906020018083116105e457829003601f168201915b5050505050815260200160018201805461061a90610c5e565b80601f016020809104026020016040519081016040528092919081815260200182805461064690610c5e565b80156106915780601f1061066857610100808354040283529160200191610691565b820191905f5260205f20905b81548152906001019060200180831161067457829003601f168201915b50505050508152602001600282015f9054906101000a900460ff1615151515815250509050805f015181602001518260400151935093509350509193909250565b60015f9054906101000a900473ffffffffffffffffffffffffffffffffffffffff1681565b5f604051905090565b5f80fd5b5f80fd5b5f819050919050565b61071a81610708565b8114610724575f80fd5b50565b5f8135905061073581610711565b92915050565b5f602082840312156107505761074f610700565b5b5f61075d84828501610727565b91505092915050565b5f81519050919050565b5f82825260208201905092915050565b5f5b8381101561079d578082015181840152602081019050610782565b5f8484015250505050565b5f601f19601f8301169050919050565b5f6107c282610766565b6107cc8185610770565b93506107dc818560208601610780565b6107e5816107a8565b840191505092915050565b5f8115159050919050565b610804816107f0565b82525050565b5f6060820190508181035f83015261082281866107b8565b9050818103602083015261083681856107b8565b905061084560408301846107fb565b949350505050565b5f81519050919050565b5f82825260208201905092915050565b5f819050602082019050919050565b5f82825260208201905092915050565b5f61089082610766565b61089a8185610876565b93506108aa818560208601610780565b6108b3816107a8565b840191505092915050565b6108c7816107f0565b82525050565b5f606083015f8301518482035f8601526108e78282610886565b915050602083015184820360208601526109018282610886565b915050604083015161091660408601826108be565b508091505092915050565b5f61092c83836108cd565b905092915050565b5f602082019050919050565b5f61094a8261084d565b6109548185610857565b93508360208202850161096685610867565b805f5b858110156109a157848403895281516109828582610921565b945061098d83610934565b925060208a01995050600181019050610969565b50829750879550505050505092915050565b5f6020820190508181035f8301526109cb8184610940565b905092915050565b5f80fd5b5f80fd5b7f4e487b71000000000000000000000000000000000000000000000000000000005f52604160045260245ffd5b610a11826107a8565b810181811067ffffffffffffffff82111715610a3057610a2f6109db565b5b80604052505050565b5f610a426106f7565b9050610a4e8282610a08565b919050565b5f67ffffffffffffffff821115610a6d57610a6c6109db565b5b610a76826107a8565b9050602081019050919050565b828183375f83830152505050565b5f610aa3610a9e84610a53565b610a39565b905082815260208101848484011115610abf57610abe6109d7565b5b610aca848285610a83565b509392505050565b5f82601f830112610ae657610ae56109d3565b5b8135610af6848260208601610a91565b91505092915050565b610b08816107f0565b8114610b12575f80fd5b50565b5f81359050610b2381610aff565b92915050565b5f805f60608486031215610b4057610b3f610700565b5b5f84013567ffffffffffffffff811115610b5d57610b5c610704565b5b610b6986828701610ad2565b935050602084013567ffffffffffffffff811115610b8a57610b89610704565b5b610b9686828701610ad2565b9250506040610ba786828701610b15565b9150509250925092565b610bba81610708565b82525050565b5f602082019050610bd35f830184610bb1565b92915050565b5f73ffffffffffffffffffffffffffffffffffffffff82169050919050565b5f610c0282610bd9565b9050919050565b610c1281610bf8565b82525050565b5f602082019050610c2b5f830184610c09565b92915050565b7f4e487b71000000000000000000000000000000000000000000000000000000005f52602260045260245ffd5b5f6002820490506001821680610c7557607f821691505b602082108103610c8857610c87610c31565b5b50919050565b7f4f6e6c79207465616368657220616c6c6f7765640000000000000000000000005f82015250565b5f610cc2601483610770565b9150610ccd82610c8e565b602082019050919050565b5f6020820190508181035f830152610cef81610cb6565b9050919050565b5f819050815f5260205f209050919050565b5f6020601f8301049050919050565b5f82821b905092915050565b5f60088302610d527fffffffffffffffffffffffffffffffffffffffffffffffffffffffffffffffff82610d17565b610d5c8683610d17565b95508019841693508086168417925050509392505050565b5f819050919050565b5f610d97610d92610d8d84610708565b610d74565b610708565b9050919050565b5f819050919050565b610db083610d7d565b610dc4610dbc82610d9e565b848454610d23565b825550505050565b5f90565b610dd8610dcc565b610de3818484610da7565b505050565b5b81811015610e0657610dfb5f82610dd0565b600181019050610de9565b5050565b601f821115610e4b57610e1c81610cf6565b610e2584610d08565b81016020851015610e34578190505b610e48610e4085610d08565b830182610de8565b50505b505050565b5f82821c905092915050565b5f610e6b5f1984600802610e50565b1980831691505092915050565b5f610e838383610e5c565b9150826002028217905092915050565b610e9c82610766565b67ffffffffffffffff811115610eb557610eb46109db565b5b610ebf8254610c5e565b610eca828285610e0a565b5f60209050601f831160018114610efb575f8415610ee9578287015190505b610ef38582610e78565b865550610f5a565b601f198416610f0986610cf6565b5f5b82811015610f3057848901518255600182019150602085019450602081019050610f0b565b86831015610f4d5784890151610f49601f891682610e5c565b8355505b6001600288020188555050505b505050505050565b7f4e487b71000000000000000000000000000000000000000000000000000000005f52603260045260245ffdfea26469706673582212207104ddc087a328f0b3d2fc78b2472c03ed0137af142ce788c6270dbf9d61a58a64736f6c63430008140033","opcodes":"PUSH1 0x80 PUSH1 0x40 MSTORE CALLVALUE DUP1 ISZERO PUSH2 0xF JUMPI PUSH0 DUP1 REVERT JUMPDEST POP CALLER PUSH1 0x1 PUSH0 PUSH2 0x100 EXP DUP2 SLOAD DUP2 PUSH20 0xFFFFFFFFFFFFFFFFFFFFFFFFFFFFFFFFFFFFFFFF MUL NOT AND SWAP1 DUP4 PUSH20 0xFFFFFFFFFFFFFFFFFFFFFFFFFFFFFFFFFFFFFFFF AND MUL OR SWAP1 SSTORE POP PUSH2 0xFC5 DUP1 PUSH2 0x5D PUSH0 CODECOPY PUSH0 RETURN INVALID PUSH1 0x80 PUSH1 0x40 MSTORE CALLVALUE DUP1 ISZERO PUSH2 0xF JUMPI PUSH0 DUP1 REVERT JUMPDEST POP PUSH1 0x4 CALLDATASIZE LT PUSH2 0x60 JUMPI PUSH0 CALLDATALOAD PUSH1 0xE0 SHR DUP1 PUSH4 0x34461067 EQ PUSH2 0x64 JUMPI DUP1 PUSH4 0x8EFF3C29 EQ PUSH2 0x96 JUMPI DUP1 PUSH4 0x9B3510D4 EQ PUSH2 0xB4 JUMPI DUP1 PUSH4 0xA26F8011 EQ PUSH2 0xD0 JUMPI DUP1 PUSH4 0xB4307E3F EQ PUSH2 0xEE JUMPI DUP1 PUSH4 0xB46BFF89 EQ PUSH2 0x120 JUMPI JUMPDEST PUSH0 DUP1 REVERT JUMPDEST PUSH2 0x7E PUSH1 0x4 DUP1 CALLDATASIZE SUB DUP2 ADD SWAP1 PUSH2 0x79 SWAP2 SWAP1 PUSH2 0x73B JUMP JUMPDEST PUSH2 0x13E JUMP JUMPDEST PUSH1 0x40 MLOAD PUSH2 0x8D SWAP4 SWAP3 SWAP2 SWAP1 PUSH2 0x80A JUMP JUMPDEST PUSH1 0x40 MLOAD DUP1 SWAP2 SUB SWAP1 RETURN JUMPDEST PUSH2 0x9E PUSH2 0x28A JUMP JUMPDEST PUSH1 0x40 MLOAD PUSH2 0xAB SWAP2 SWAP1 PUSH2 0x9B3 JUMP JUMPDEST PUSH1 0x40 MLOAD DUP1 SWAP2 SUB SWAP1 RETURN JUMPDEST PUSH2 0xCE PUSH1 0x4 DUP1 CALLDATASIZE SUB DUP2 ADD SWAP1 PUSH2 0xC9 SWAP2 SWAP1 PUSH2 0xB29 JUMP JUMPDEST PUSH2 0x41E JUMP JUMPDEST STOP JUMPDEST PUSH2 0xD8 PUSH2 0x541 JUMP JUMPDEST PUSH1 0x40 MLOAD PUSH2 0xE5 SWAP2 SWAP1 PUSH2 0xBC0 JUMP JUMPDEST PUSH1 0x40 MLOAD DUP1 SWAP2 SUB SWAP1 RETURN JUMPDEST PUSH2 0x108 PUSH1 0x4 DUP1 CALLDATASIZE SUB DUP2 ADD SWAP1 PUSH2 0x103 SWAP2 SWAP1 PUSH2 0x73B JUMP JUMPDEST PUSH2 0x54C JUMP JUMPDEST PUSH1 0x40 MLOAD PUSH2 0x117 SWAP4 SWAP3 SWAP2 SWAP1 PUSH2 0x80A JUMP JUMPDEST PUSH1 0x40 MLOAD DUP1 SWAP2 SUB SWAP1 RETURN JUMPDEST PUSH2 0x128 PUSH2 0x6D2 JUMP JUMPDEST PUSH1 0x40 MLOAD PUSH2 0x135 SWAP2 SWAP1 PUSH2 0xC18 JUMP JUMPDEST PUSH1 0x40 MLOAD DUP1 SWAP2 SUB SWAP1 RETURN JUMPDEST PUSH0 DUP2 DUP2 SLOAD DUP2 LT PUSH2 0x14C JUMPI PUSH0 DUP1 REVERT JUMPDEST SWAP1 PUSH0 MSTORE PUSH1 0x20 PUSH0 KECCAK256 SWAP1 PUSH1 0x3 MUL ADD PUSH0 SWAP2 POP SWAP1 POP DUP1 PUSH0 ADD DUP1 SLOAD PUSH2 0x16B SWAP1 PUSH2 0xC5E JUMP JUMPDEST DUP1 PUSH1 0x1F ADD PUSH1 0x20 DUP1 SWAP2 DIV MUL PUSH1 0x20 ADD PUSH1 0x40 MLOAD SWAP1 DUP2 ADD PUSH1 0x40 MSTORE DUP1 SWAP3 SWAP2 SWAP1 DUP2 DUP2 MSTORE PUSH1 0x20 ADD DUP3 DUP1 SLOAD PUSH2 0x197 SWAP1 PUSH2 0xC5E JUMP JUMPDEST DUP1 ISZERO PUSH2 0x1E2 JUMPI DUP1 PUSH1 0x1F LT PUSH2 0x1B9 JUMPI PUSH2 0x100 DUP1 DUP4 SLOAD DIV MUL DUP4 MSTORE SWAP2 PUSH1 0x20 ADD SWAP2 PUSH2 0x1E2 JUMP JUMPDEST DUP3 ADD SWAP2 SWAP1 PUSH0 MSTORE PUSH1 0x20 PUSH0 KECCAK256 SWAP1 JUMPDEST DUP2 SLOAD DUP2 MSTORE SWAP1 PUSH1 0x1 ADD SWAP1 PUSH1 0x20 ADD DUP1 DUP4 GT PUSH2 0x1C5 JUMPI DUP3 SWAP1 SUB PUSH1 0x1F AND DUP3 ADD SWAP2 JUMPDEST POP POP POP POP POP SWAP1 DUP1 PUSH1 0x1 ADD DUP1 SLOAD PUSH2 0x1F7 SWAP1 PUSH2 0xC5E JUMP JUMPDEST DUP1 PUSH1 0x1F ADD PUSH1 0x20 DUP1 SWAP2 DIV MUL PUSH1 0x20 ADD PUSH1 0x40 MLOAD SWAP1 DUP2 ADD PUSH1 0x40 MSTORE DUP1 SWAP3 SWAP2 SWAP1 DUP2 DUP2 MSTORE PUSH1 0x20 ADD DUP3 DUP1 SLOAD PUSH2 0x223 SWAP1 PUSH2 0xC5E JUMP JUMPDEST DUP1 ISZERO PUSH2 0x26E JUMPI DUP1 PUSH1 0x1F LT PUSH2 0x245 JUMPI PUSH2 0x100 DUP1 DUP4 SLOAD DIV MUL DUP4 MSTORE SWAP2 PUSH1 0x20 ADD SWAP2 PUSH2 0x26E JUMP JUMPDEST DUP3 ADD SWAP2 SWAP1 PUSH0 MSTORE PUSH1 0x20 PUSH0 KECCAK256 SWAP1 JUMPDEST DUP2 SLOAD DUP2 MSTORE SWAP1 PUSH1 0x1 ADD SWAP1 PUSH1 0x20 ADD DUP1 DUP4 GT PUSH2 0x251 JUMPI DUP3 SWAP1 SUB PUSH1 0x1F AND DUP3 ADD SWAP2 JUMPDEST POP POP POP POP POP SWAP1 DUP1 PUSH1 0x2 ADD PUSH0 SWAP1 SLOAD SWAP1 PUSH2 0x100 EXP SWAP1 DIV PUSH1 0xFF AND SWAP1 POP DUP4 JUMP JUMPDEST PUSH1 0x60 PUSH0 DUP1 SLOAD DUP1 PUSH1 0x20 MUL PUSH1 0x20 ADD PUSH1 0x40 MLOAD SWAP1 DUP2 ADD PUSH1 0x40 MSTORE DUP1 SWAP3 SWAP2 SWAP1 DUP2 DUP2 MSTORE PUSH1 0x20 ADD PUSH0 SWAP1 JUMPDEST DUP3 DUP3 LT ISZERO PUSH2 0x415 JUMPI DUP4 DUP3 SWAP1 PUSH0 MSTORE PUSH1 0x20 PUSH0 KECCAK256 SWAP1 PUSH1 0x3 MUL ADD PUSH1 0x40 MLOAD DUP1 PUSH1 0x60 ADD PUSH1 0x40 MSTORE SWAP1 DUP2 PUSH0 DUP3 ADD DUP1 SLOAD PUSH2 0x2DC SWAP1 PUSH2 0xC5E JUMP JUMPDEST DUP1 PUSH1 0x1F ADD PUSH1 0x20 DUP1 SWAP2 DIV MUL PUSH1 0x20 ADD PUSH1 0x40 MLOAD SWAP1 DUP2 ADD PUSH1 0x40 MSTORE DUP1 SWAP3 SWAP2 SWAP1 DUP2 DUP2 MSTORE PUSH1 0x20 ADD DUP3 DUP1 SLOAD PUSH2 0x308 SWAP1 PUSH2 0xC5E JUMP JUMPDEST DUP1 ISZERO PUSH2 0x353 JUMPI DUP1 PUSH1 0x1F LT PUSH2 0x32A JUMPI PUSH2 0x100 DUP1 DUP4 SLOAD DIV MUL DUP4 MSTORE SWAP2 PUSH1 0x20 ADD SWAP2 PUSH2 0x353 JUMP JUMPDEST DUP3 ADD SWAP2 SWAP1 PUSH0 MSTORE PUSH1 0x20 PUSH0 KECCAK256 SWAP1 JUMPDEST DUP2 SLOAD DUP2 MSTORE SWAP1 PUSH1 0x1 ADD SWAP1 PUSH1 0x20 ADD DUP1 DUP4 GT PUSH2 0x336 JUMPI DUP3 SWAP1 SUB PUSH1 0x1F AND DUP3 ADD SWAP2 JUMPDEST POP POP POP POP POP DUP2 MSTORE PUSH1 0x20 ADD PUSH1 0x1 DUP3 ADD DUP1 SLOAD PUSH2 0x36C SWAP1 PUSH2 0xC5E JUMP JUMPDEST DUP1 PUSH1 0x1F ADD PUSH1 0x20 DUP1 SWAP2 DIV MUL PUSH1 0x20 ADD PUSH1 0x40 MLOAD SWAP1 DUP2 ADD PUSH1 0x40 MSTORE DUP1 SWAP3 SWAP2 SWAP1 DUP2 DUP2 MSTORE PUSH1 0x20 ADD DUP3 DUP1 SLOAD PUSH2 0x398 SWAP1 PUSH2 0xC5E JUMP JUMPDEST DUP1 ISZERO PUSH2 0x3E3 JUMPI DUP1 PUSH1 0x1F LT PUSH2 0x3BA JUMPI PUSH2 0x100 DUP1 DUP4 SLOAD DIV MUL DUP4 MSTORE SWAP2 PUSH1 0x20 ADD SWAP2 PUSH2 0x3E3 JUMP JUMPDEST DUP3 ADD SWAP2 SWAP1 PUSH0 MSTORE PUSH1 0x20 PUSH0 KECCAK256 SWAP1 JUMPDEST DUP2 SLOAD DUP2 MSTORE SWAP1 PUSH1 0x1 ADD SWAP1 PUSH1 0x20 ADD DUP1 DUP4 GT PUSH2 0x3C6 JUMPI DUP3 SWAP1 SUB PUSH1 0x1F AND DUP3 ADD SWAP2 JUMPDEST POP POP POP POP POP DUP2 MSTORE PUSH1 0x20 ADD PUSH1 0x2 DUP3 ADD PUSH0 SWAP1 SLOAD SWAP1 PUSH2 0x100 EXP SWAP1 DIV PUSH1 0xFF AND ISZERO ISZERO ISZERO ISZERO DUP2 MSTORE POP POP DUP2 MSTORE PUSH1 0x20 ADD SWAP1 PUSH1 0x1 ADD SWAP1 PUSH2 0x2AC JUMP JUMPDEST POP POP POP POP SWAP1 POP SWAP1 JUMP JUMPDEST PUSH1 0x1 PUSH0 SWAP1 SLOAD SWAP1 PUSH2 0x100 EXP SWAP1 DIV PUSH20 0xFFFFFFFFFFFFFFFFFFFFFFFFFFFFFFFFFFFFFFFF AND PUSH20 0xFFFFFFFFFFFFFFFFFFFFFFFFFFFFFFFFFFFFFFFF AND CALLER PUSH20 0xFFFFFFFFFFFFFFFFFFFFFFFFFFFFFFFFFFFFFFFF AND EQ PUSH2 0x4AD JUMPI PUSH1 0x40 MLOAD PUSH32 0x8C379A000000000000000000000000000000000000000000000000000000000 DUP2 MSTORE PUSH1 0x4 ADD PUSH2 0x4A4 SWAP1 PUSH2 0xCD8 JUMP JUMPDEST PUSH1 0x40 MLOAD DUP1 SWAP2 SUB SWAP1 REVERT JUMPDEST PUSH0 PUSH1 0x40 MLOAD DUP1 PUSH1 0x60 ADD PUSH1 0x40 MSTORE DUP1 DUP6 DUP2 MSTORE PUSH1 0x20 ADD DUP5 DUP2 MSTORE PUSH1 0x20 ADD DUP4 ISZERO ISZERO DUP2 MSTORE POP SWAP1 DUP1 PUSH1 0x1 DUP2 SLOAD ADD DUP1 DUP3 SSTORE DUP1 SWAP2 POP POP PUSH1 0x1 SWAP1 SUB SWAP1 PUSH0 MSTORE PUSH1 0x20 PUSH0 KECCAK256 SWAP1 PUSH1 0x3 MUL ADD PUSH0 SWAP1 SWAP2 SWAP1 SWAP2 SWAP1 SWAP2 POP PUSH0 DUP3 ADD MLOAD DUP2 PUSH0 ADD SWAP1 DUP2 PUSH2 0x504 SWAP2 SWAP1 PUSH2 0xE93 JUMP JUMPDEST POP PUSH1 0x20 DUP3 ADD MLOAD DUP2 PUSH1 0x1 ADD SWAP1 DUP2 PUSH2 0x51A SWAP2 SWAP1 PUSH2 0xE93 JUMP JUMPDEST POP PUSH1 0x40 DUP3 ADD MLOAD DUP2 PUSH1 0x2 ADD PUSH0 PUSH2 0x100 EXP DUP2 SLOAD DUP2 PUSH1 0xFF MUL NOT AND SWAP1 DUP4 ISZERO ISZERO MUL OR SWAP1 SSTORE POP POP POP POP POP POP JUMP JUMPDEST PUSH0 DUP1 DUP1 SLOAD SWAP1 POP SWAP1 POP SWAP1 JUMP JUMPDEST PUSH1 0x60 DUP1 PUSH0 DUP1 PUSH0 DUP6 DUP2 SLOAD DUP2 LT PUSH2 0x564 JUMPI PUSH2 0x563 PUSH2 0xF62 JUMP JUMPDEST JUMPDEST SWAP1 PUSH0 MSTORE PUSH1 0x20 PUSH0 KECCAK256 SWAP1 PUSH1 0x3 MUL ADD PUSH1 0x40 MLOAD DUP1 PUSH1 0x60 ADD PUSH1 0x40 MSTORE SWAP1 DUP2 PUSH0 DUP3 ADD DUP1 SLOAD PUSH2 0x58A SWAP1 PUSH2 0xC5E JUMP JUMPDEST DUP1 PUSH1 0x1F ADD PUSH1 0x20 DUP1 SWAP2 DIV MUL PUSH1 0x20 ADD PUSH1 0x40 MLOAD SWAP1 DUP2 ADD PUSH1 0x40 MSTORE DUP1 SWAP3 SWAP2 SWAP1 DUP2 DUP2 MSTORE PUSH1 0x20 ADD DUP3 DUP1 SLOAD PUSH2 0x5B6 SWAP1 PUSH2 0xC5E JUMP JUMPDEST DUP1 ISZERO PUSH2 0x601 JUMPI DUP1 PUSH1 0x1F LT PUSH2 0x5D8 JUMPI PUSH2 0x100 DUP1 DUP4 SLOAD DIV MUL DUP4 MSTORE SWAP2 PUSH1 0x20 ADD SWAP2 PUSH2 0x601 JUMP JUMPDEST DUP3 ADD SWAP2 SWAP1 PUSH0 MSTORE PUSH1 0x20 PUSH0 KECCAK256 SWAP1 JUMPDEST DUP2 SLOAD DUP2 MSTORE SWAP1 PUSH1 0x1 ADD SWAP1 PUSH1 0x20 ADD DUP1 DUP4 GT PUSH2 0x5E4 JUMPI DUP3 SWAP1 SUB PUSH1 0x1F AND DUP3 ADD SWAP2 JUMPDEST POP POP POP POP POP DUP2 MSTORE PUSH1 0x20 ADD PUSH1 0x1 DUP3 ADD DUP1 SLOAD PUSH2 0x61A SWAP1 PUSH2 0xC5E JUMP JUMPDEST DUP1 PUSH1 0x1F ADD PUSH1 0x20 DUP1 SWAP2 DIV MUL PUSH1 0x20 ADD PUSH1 0x40 MLOAD SWAP1 DUP2 ADD PUSH1 0x40 MSTORE DUP1 SWAP3 SWAP2 SWAP1 DUP2 DUP2 MSTORE PUSH1 0x20 ADD DUP3 DUP1 SLOAD PUSH2 0x646 SWAP1 PUSH2 0xC5E JUMP JUMPDEST DUP1 ISZERO PUSH2 0x691 JUMPI DUP1 PUSH1 0x1F LT PUSH2 0x668 JUMPI PUSH2 0x100 DUP1 DUP4 SLOAD DIV MUL DUP4 MSTORE SWAP2 PUSH1 0x20 ADD SWAP2 PUSH2 0x691 JUMP JUMPDEST DUP3 ADD SWAP2 SWAP1 PUSH0 MSTORE PUSH1 0x20 PUSH0 KECCAK256 SWAP1 JUMPDEST DUP2 SLOAD DUP2 MSTORE SWAP1 PUSH1 0x1 ADD SWAP1 PUSH1 0x20 ADD DUP1 DUP4 GT PUSH2 0x674 JUMPI DUP3 SWAP1 SUB PUSH1 0x1F AND DUP3 ADD SWAP2 JUMPDEST POP POP POP POP POP DUP2 MSTORE PUSH1 0x20 ADD PUSH1 0x2 DUP3 ADD PUSH0 SWAP1 SLOAD SWAP1 PUSH2 0x100 EXP SWAP1 DIV PUSH1 0xFF AND ISZERO ISZERO ISZERO ISZERO DUP2 MSTORE POP POP SWAP1 POP DUP1 PUSH0 ADD MLOAD DUP2 PUSH1 0x20 ADD MLOAD DUP3 PUSH1 0x40 ADD MLOAD SWAP4 POP SWAP4 POP SWAP4 POP POP SWAP2 SWAP4 SWAP1 SWAP3 POP JUMP JUMPDEST PUSH1 0x1 PUSH0 SWAP1 SLOAD SWAP1 PUSH2 0x100 EXP SWAP1 DIV PUSH20 0xFFFFFFFFFFFFFFFFFFFFFFFFFFFFFFFFFFFFFFFF AND DUP2 JUMP JUMPDEST PUSH0 PUSH1 0x40 MLOAD SWAP1 POP SWAP1 JUMP JUMPDEST PUSH0 DUP1 REVERT JUMPDEST PUSH0 DUP1 REVERT JUMPDEST PUSH0 DUP2 SWAP1 POP SWAP2 SWAP1 POP JUMP JUMPDEST PUSH2 0x71A DUP2 PUSH2 0x708 JUMP JUMPDEST DUP2 EQ PUSH2 0x724 JUMPI PUSH0 DUP1 REVERT JUMPDEST POP JUMP JUMPDEST PUSH0 DUP2 CALLDATALOAD SWAP1 POP PUSH2 0x735 DUP2 PUSH2 0x711 JUMP JUMPDEST SWAP3 SWAP2 POP POP JUMP JUMPDEST PUSH0 PUSH1 0x20 DUP3 DUP5 SUB SLT ISZERO PUSH2 0x750 JUMPI PUSH2 0x74F PUSH2 0x700 JUMP JUMPDEST JUMPDEST PUSH0 PUSH2 0x75D DUP5 DUP3 DUP6 ADD PUSH2 0x727 JUMP JUMPDEST SWAP2 POP POP SWAP3 SWAP2 POP POP JUMP JUMPDEST PUSH0 DUP2 MLOAD SWAP1 POP SWAP2 SWAP1 POP JUMP JUMPDEST PUSH0 DUP3 DUP3 MSTORE PUSH1 0x20 DUP3 ADD SWAP1 POP SWAP3 SWAP2 POP POP JUMP JUMPDEST PUSH0 JUMPDEST DUP4 DUP2 LT ISZERO PUSH2 0x79D JUMPI DUP1 DUP3 ADD MLOAD DUP2 DUP5 ADD MSTORE PUSH1 0x20 DUP2 ADD SWAP1 POP PUSH2 0x782 JUMP JUMPDEST PUSH0 DUP5 DUP5 ADD MSTORE POP POP POP POP JUMP JUMPDEST PUSH0 PUSH1 0x1F NOT PUSH1 0x1F DUP4 ADD AND SWAP1 POP SWAP2 SWAP1 POP JUMP JUMPDEST PUSH0 PUSH2 0x7C2 DUP3 PUSH2 0x766 JUMP JUMPDEST PUSH2 0x7CC DUP2 DUP6 PUSH2 0x770 JUMP JUMPDEST SWAP4 POP PUSH2 0x7DC DUP2 DUP6 PUSH1 0x20 DUP7 ADD PUSH2 0x780 JUMP JUMPDEST PUSH2 0x7E5 DUP2 PUSH2 0x7A8 JUMP JUMPDEST DUP5 ADD SWAP2 POP POP SWAP3 SWAP2 POP POP JUMP JUMPDEST PUSH0 DUP2 ISZERO ISZERO SWAP1 POP SWAP2 SWAP1 POP JUMP JUMPDEST PUSH2 0x804 DUP2 PUSH2 0x7F0 JUMP JUMPDEST DUP3 MSTORE POP POP JUMP JUMPDEST PUSH0 PUSH1 0x60 DUP3 ADD SWAP1 POP DUP2 DUP2 SUB PUSH0 DUP4 ADD MSTORE PUSH2 0x822 DUP2 DUP7 PUSH2 0x7B8 JUMP JUMPDEST SWAP1 POP DUP2 DUP2 SUB PUSH1 0x20 DUP4 ADD MSTORE PUSH2 0x836 DUP2 DUP6 PUSH2 0x7B8 JUMP JUMPDEST SWAP1 POP PUSH2 0x845 PUSH1 0x40 DUP4 ADD DUP5 PUSH2 0x7FB JUMP JUMPDEST SWAP5 SWAP4 POP POP POP POP JUMP JUMPDEST PUSH0 DUP2 MLOAD SWAP1 POP SWAP2 SWAP1 POP JUMP JUMPDEST PUSH0 DUP3 DUP3 MSTORE PUSH1 0x20 DUP3 ADD SWAP1 POP SWAP3 SWAP2 POP POP JUMP JUMPDEST PUSH0 DUP2 SWAP1 POP PUSH1 0x20 DUP3 ADD SWAP1 POP SWAP2 SWAP1 POP JUMP JUMPDEST PUSH0 DUP3 DUP3 MSTORE PUSH1 0x20 DUP3 ADD SWAP1 POP SWAP3 SWAP2 POP POP JUMP JUMPDEST PUSH0 PUSH2 0x890 DUP3 PUSH2 0x766 JUMP JUMPDEST PUSH2 0x89A DUP2 DUP6 PUSH2 0x876 JUMP JUMPDEST SWAP4 POP PUSH2 0x8AA DUP2 DUP6 PUSH1 0x20 DUP7 ADD PUSH2 0x780 JUMP JUMPDEST PUSH2 0x8B3 DUP2 PUSH2 0x7A8 JUMP JUMPDEST DUP5 ADD SWAP2 POP POP SWAP3 SWAP2 POP POP JUMP JUMPDEST PUSH2 0x8C7 DUP2 PUSH2 0x7F0 JUMP JUMPDEST DUP3 MSTORE POP POP JUMP JUMPDEST PUSH0 PUSH1 0x60 DUP4 ADD PUSH0 DUP4 ADD MLOAD DUP5 DUP3 SUB PUSH0 DUP7 ADD MSTORE PUSH2 0x8E7 DUP3 DUP3 PUSH2 0x886 JUMP JUMPDEST SWAP2 POP POP PUSH1 0x20 DUP4 ADD MLOAD DUP5 DUP3 SUB PUSH1 0x20 DUP7 ADD MSTORE PUSH2 0x901 DUP3 DUP3 PUSH2 0x886 JUMP JUMPDEST SWAP2 POP POP PUSH1 0x40 DUP4 ADD MLOAD PUSH2 0x916 PUSH1 0x40 DUP7 ADD DUP3 PUSH2 0x8BE JUMP JUMPDEST POP DUP1 SWAP2 POP POP SWAP3 SWAP2 POP POP JUMP JUMPDEST PUSH0 PUSH2 0x92C DUP4 DUP4 PUSH2 0x8CD JUMP JUMPDEST SWAP1 POP SWAP3 SWAP2 POP POP JUMP JUMPDEST PUSH0 PUSH1 0x20 DUP3 ADD SWAP1 POP SWAP2 SWAP1 POP JUMP JUMPDEST PUSH0 PUSH2 0x94A DUP3 PUSH2 0x84D JUMP JUMPDEST PUSH2 0x954 DUP2 DUP6 PUSH2 0x857 JUMP JUMPDEST SWAP4 POP DUP4 PUSH1 0x20 DUP3 MUL DUP6 ADD PUSH2 0x966 DUP6 PUSH2 0x867 JUMP JUMPDEST DUP1 PUSH0 JUMPDEST DUP6 DUP2 LT ISZERO PUSH2 0x9A1 JUMPI DUP5 DUP5 SUB DUP10 MSTORE DUP2 MLOAD PUSH2 0x982 DUP6 DUP3 PUSH2 0x921 JUMP JUMPDEST SWAP5 POP PUSH2 0x98D DUP4 PUSH2 0x934 JUMP JUMPDEST SWAP3 POP PUSH1 0x20 DUP11 ADD SWAP10 POP POP PUSH1 0x1 DUP2 ADD SWAP1 POP PUSH2 0x969 JUMP JUMPDEST POP DUP3 SWAP8 POP DUP8 SWAP6 POP POP POP POP POP POP SWAP3 SWAP2 POP POP JUMP JUMPDEST PUSH0 PUSH1 0x20 DUP3 ADD SWAP1 POP DUP2 DUP2 SUB PUSH0 DUP4 ADD MSTORE PUSH2 0x9CB DUP2 DUP5 PUSH2 0x940 JUMP JUMPDEST SWAP1 POP SWAP3 SWAP2 POP POP JUMP JUMPDEST PUSH0 DUP1 REVERT JUMPDEST PUSH0 DUP1 REVERT JUMPDEST PUSH32 0x4E487B7100000000000000000000000000000000000000000000000000000000 PUSH0 MSTORE PUSH1 0x41 PUSH1 0x4 MSTORE PUSH1 0x24 PUSH0 REVERT JUMPDEST PUSH2 0xA11 DUP3 PUSH2 0x7A8 JUMP JUMPDEST DUP2 ADD DUP2 DUP2 LT PUSH8 0xFFFFFFFFFFFFFFFF DUP3 GT OR ISZERO PUSH2 0xA30 JUMPI PUSH2 0xA2F PUSH2 0x9DB JUMP JUMPDEST JUMPDEST DUP1 PUSH1 0x40 MSTORE POP POP POP JUMP JUMPDEST PUSH0 PUSH2 0xA42 PUSH2 0x6F7 JUMP JUMPDEST SWAP1 POP PUSH2 0xA4E DUP3 DUP3 PUSH2 0xA08 JUMP JUMPDEST SWAP2 SWAP1 POP JUMP JUMPDEST PUSH0 PUSH8 0xFFFFFFFFFFFFFFFF DUP3 GT ISZERO PUSH2 0xA6D JUMPI PUSH2 0xA6C PUSH2 0x9DB JUMP JUMPDEST JUMPDEST PUSH2 0xA76 DUP3 PUSH2 0x7A8 JUMP JUMPDEST SWAP1 POP PUSH1 0x20 DUP2 ADD SWAP1 POP SWAP2 SWAP1 POP JUMP JUMPDEST DUP3 DUP2 DUP4 CALLDATACOPY PUSH0 DUP4 DUP4 ADD MSTORE POP POP POP JUMP JUMPDEST PUSH0 PUSH2 0xAA3 PUSH2 0xA9E DUP5 PUSH2 0xA53 JUMP JUMPDEST PUSH2 0xA39 JUMP JUMPDEST SWAP1 POP DUP3 DUP2 MSTORE PUSH1 0x20 DUP2 ADD DUP5 DUP5 DUP5 ADD GT ISZERO PUSH2 0xABF JUMPI PUSH2 0xABE PUSH2 0x9D7 JUMP JUMPDEST JUMPDEST PUSH2 0xACA DUP5 DUP3 DUP6 PUSH2 0xA83 JUMP JUMPDEST POP SWAP4 SWAP3 POP POP POP JUMP JUMPDEST PUSH0 DUP3 PUSH1 0x1F DUP4 ADD SLT PUSH2 0xAE6 JUMPI PUSH2 0xAE5 PUSH2 0x9D3 JUMP JUMPDEST JUMPDEST DUP2 CALLDATALOAD PUSH2 0xAF6 DUP5 DUP3 PUSH1 0x20 DUP7 ADD PUSH2 0xA91 JUMP JUMPDEST SWAP2 POP POP SWAP3 SWAP2 POP POP JUMP JUMPDEST PUSH2 0xB08 DUP2 PUSH2 0x7F0 JUMP JUMPDEST DUP2 EQ PUSH2 0xB12 JUMPI PUSH0 DUP1 REVERT JUMPDEST POP JUMP JUMPDEST PUSH0 DUP2 CALLDATALOAD SWAP1 POP PUSH2 0xB23 DUP2 PUSH2 0xAFF JUMP JUMPDEST SWAP3 SWAP2 POP POP JUMP JUMPDEST PUSH0 DUP1 PUSH0 PUSH1 0x60 DUP5 DUP7 SUB SLT ISZERO PUSH2 0xB40 JUMPI PUSH2 0xB3F PUSH2 0x700 JUMP JUMPDEST JUMPDEST PUSH0 DUP5 ADD CALLDATALOAD PUSH8 0xFFFFFFFFFFFFFFFF DUP2 GT ISZERO PUSH2 0xB5D JUMPI PUSH2 0xB5C PUSH2 0x704 JUMP JUMPDEST JUMPDEST PUSH2 0xB69 DUP7 DUP3 DUP8 ADD PUSH2 0xAD2 JUMP JUMPDEST SWAP4 POP POP PUSH1 0x20 DUP5 ADD CALLDATALOAD PUSH8 0xFFFFFFFFFFFFFFFF DUP2 GT ISZERO PUSH2 0xB8A JUMPI PUSH2 0xB89 PUSH2 0x704 JUMP JUMPDEST JUMPDEST PUSH2 0xB96 DUP7 DUP3 DUP8 ADD PUSH2 0xAD2 JUMP JUMPDEST SWAP3 POP POP PUSH1 0x40 PUSH2 0xBA7 DUP7 DUP3 DUP8 ADD PUSH2 0xB15 JUMP JUMPDEST SWAP2 POP POP SWAP3 POP SWAP3 POP SWAP3 JUMP JUMPDEST PUSH2 0xBBA DUP2 PUSH2 0x708 JUMP JUMPDEST DUP3 MSTORE POP POP JUMP JUMPDEST PUSH0 PUSH1 0x20 DUP3 ADD SWAP1 POP PUSH2 0xBD3 PUSH0 DUP4 ADD DUP5 PUSH2 0xBB1 JUMP JUMPDEST SWAP3 SWAP2 POP POP JUMP JUMPDEST PUSH0 PUSH20 0xFFFFFFFFFFFFFFFFFFFFFFFFFFFFFFFFFFFFFFFF DUP3 AND SWAP1 POP SWAP2 SWAP1 POP JUMP JUMPDEST PUSH0 PUSH2 0xC02 DUP3 PUSH2 0xBD9 JUMP JUMPDEST SWAP1 POP SWAP2 SWAP1 POP JUMP JUMPDEST PUSH2 0xC12 DUP2 PUSH2 0xBF8 JUMP JUMPDEST DUP3 MSTORE POP POP JUMP JUMPDEST PUSH0 PUSH1 0x20 DUP3 ADD SWAP1 POP PUSH2 0xC2B PUSH0 DUP4 ADD DUP5 PUSH2 0xC09 JUMP JUMPDEST SWAP3 SWAP2 POP POP JUMP JUMPDEST PUSH32 0x4E487B7100000000000000000000000000000000000000000000000000000000 PUSH0 MSTORE PUSH1 0x22 PUSH1 0x4 MSTORE PUSH1 0x24 PUSH0 REVERT JUMPDEST PUSH0 PUSH1 0x2 DUP3 DIV SWAP1 POP PUSH1 0x1 DUP3 AND DUP1 PUSH2 0xC75 JUMPI PUSH1 0x7F DUP3 AND SWAP2 POP JUMPDEST PUSH1 0x20 DUP3 LT DUP2 SUB PUSH2 0xC88 JUMPI PUSH2 0xC87 PUSH2 0xC31 JUMP JUMPDEST JUMPDEST POP SWAP2 SWAP1 POP JUMP JUMPDEST PUSH32 0x4F6E6C79207465616368657220616C6C6F776564000000000000000000000000 PUSH0 DUP3 ADD MSTORE POP JUMP JUMPDEST PUSH0 PUSH2 0xCC2 PUSH1 0x14 DUP4 PUSH2 0x770 JUMP JUMPDEST SWAP2 POP PUSH2 0xCCD DUP3 PUSH2 0xC8E JUMP JUMPDEST PUSH1 0x20 DUP3 ADD SWAP1 POP SWAP2 SWAP1 POP JUMP JUMPDEST PUSH0 PUSH1 0x20 DUP3 ADD SWAP1 POP DUP2 DUP2 SUB PUSH0 DUP4 ADD MSTORE PUSH2 0xCEF DUP2 PUSH2 0xCB6 JUMP JUMPDEST SWAP1 POP SWAP2 SWAP1 POP JUMP JUMPDEST PUSH0 DUP2 SWAP1 POP DUP2 PUSH0 MSTORE PUSH1 0x20 PUSH0 KECCAK256 SWAP1 POP SWAP2 SWAP1 POP JUMP JUMPDEST PUSH0 PUSH1 0x20 PUSH1 0x1F DUP4 ADD DIV SWAP1 POP SWAP2 SWAP1 POP JUMP JUMPDEST PUSH0 DUP3 DUP3 SHL SWAP1 POP SWAP3 SWAP2 POP POP JUMP JUMPDEST PUSH0 PUSH1 0x8 DUP4 MUL PUSH2 0xD52 PUSH32 0xFFFFFFFFFFFFFFFFFFFFFFFFFFFFFFFFFFFFFFFFFFFFFFFFFFFFFFFFFFFFFFFF DUP3 PUSH2 0xD17 JUMP JUMPDEST PUSH2 0xD5C DUP7 DUP4 PUSH2 0xD17 JUMP JUMPDEST SWAP6 POP DUP1 NOT DUP5 AND SWAP4 POP DUP1 DUP7 AND DUP5 OR SWAP3 POP POP POP SWAP4 SWAP3 POP POP POP JUMP JUMPDEST PUSH0 DUP2 SWAP1 POP SWAP2 SWAP1 POP JUMP JUMPDEST PUSH0 PUSH2 0xD97 PUSH2 0xD92 PUSH2 0xD8D DUP5 PUSH2 0x708 JUMP JUMPDEST PUSH2 0xD74 JUMP JUMPDEST PUSH2 0x708 JUMP JUMPDEST SWAP1 POP SWAP2 SWAP1 POP JUMP JUMPDEST PUSH0 DUP2 SWAP1 POP SWAP2 SWAP1 POP JUMP JUMPDEST PUSH2 0xDB0 DUP4 PUSH2 0xD7D JUMP JUMPDEST PUSH2 0xDC4 PUSH2 0xDBC DUP3 PUSH2 0xD9E JUMP JUMPDEST DUP5 DUP5 SLOAD PUSH2 0xD23 JUMP JUMPDEST DUP3 SSTORE POP POP POP POP JUMP JUMPDEST PUSH0 SWAP1 JUMP JUMPDEST PUSH2 0xDD8 PUSH2 0xDCC JUMP JUMPDEST PUSH2 0xDE3 DUP2 DUP5 DUP5 PUSH2 0xDA7 JUMP JUMPDEST POP POP POP JUMP JUMPDEST JUMPDEST DUP2 DUP2 LT ISZERO PUSH2 0xE06 JUMPI PUSH2 0xDFB PUSH0 DUP3 PUSH2 0xDD0 JUMP JUMPDEST PUSH1 0x1 DUP2 ADD SWAP1 POP PUSH2 0xDE9 JUMP JUMPDEST POP POP JUMP JUMPDEST PUSH1 0x1F DUP3 GT ISZERO PUSH2 0xE4B JUMPI PUSH2 0xE1C DUP2 PUSH2 0xCF6 JUMP JUMPDEST PUSH2 0xE25 DUP5 PUSH2 0xD08 JUMP JUMPDEST DUP2 ADD PUSH1 0x20 DUP6 LT ISZERO PUSH2 0xE34 JUMPI DUP2 SWAP1 POP JUMPDEST PUSH2 0xE48 PUSH2 0xE40 DUP6 PUSH2 0xD08 JUMP JUMPDEST DUP4 ADD DUP3 PUSH2 0xDE8 JUMP JUMPDEST POP POP JUMPDEST POP POP POP JUMP JUMPDEST PUSH0 DUP3 DUP3 SHR SWAP1 POP SWAP3 SWAP2 POP POP JUMP JUMPDEST PUSH0 PUSH2 0xE6B PUSH0 NOT DUP5 PUSH1 0x8 MUL PUSH2 0xE50 JUMP JUMPDEST NOT DUP1 DUP4 AND SWAP2 POP POP SWAP3 SWAP2 POP POP JUMP JUMPDEST PUSH0 PUSH2 0xE83 DUP4 DUP4 PUSH2 0xE5C JUMP JUMPDEST SWAP2 POP DUP3 PUSH1 0x2 MUL DUP3 OR SWAP1 POP SWAP3 SWAP2 POP POP JUMP JUMPDEST PUSH2 0xE9C DUP3 PUSH2 0x766 JUMP JUMPDEST PUSH8 0xFFFFFFFFFFFFFFFF DUP2 GT ISZERO PUSH2 0xEB5 JUMPI PUSH2 0xEB4 PUSH2 0x9DB JUMP JUMPDEST JUMPDEST PUSH2 0xEBF DUP3 SLOAD PUSH2 0xC5E JUMP JUMPDEST PUSH2 0xECA DUP3 DUP3 DUP6 PUSH2 0xE0A JUMP JUMPDEST PUSH0 PUSH1 0x20 SWAP1 POP PUSH1 0x1F DUP4 GT PUSH1 0x1 DUP2 EQ PUSH2 0xEFB JUMPI PUSH0 DUP5 ISZERO PUSH2 0xEE9 JUMPI DUP3 DUP8 ADD MLOAD SWAP1 POP JUMPDEST PUSH2 0xEF3 DUP6 DUP3 PUSH2 0xE78 JUMP JUMPDEST DUP7 SSTORE POP PUSH2 0xF5A JUMP JUMPDEST PUSH1 0x1F NOT DUP5 AND PUSH2 0xF09 DUP7 PUSH2 0xCF6 JUMP JUMPDEST PUSH0 JUMPDEST DUP3 DUP2 LT ISZERO PUSH2 0xF30 JUMPI DUP5 DUP10 ADD MLOAD DUP3 SSTORE PUSH1 0x1 DUP3 ADD SWAP2 POP PUSH1 0x20 DUP6 ADD SWAP5 POP PUSH1 0x20 DUP2 ADD SWAP1 POP PUSH2 0xF0B JUMP JUMPDEST DUP7 DUP4 LT ISZERO PUSH2 0xF4D JUMPI DUP5 DUP10 ADD MLOAD PUSH2 0xF49 PUSH1 0x1F DUP10 AND DUP3 PUSH2 0xE5C JUMP JUMPDEST DUP4 SSTORE POP JUMPDEST PUSH1 0x1 PUSH1 0x2 DUP9 MUL ADD DUP9 SSTORE POP POP POP JUMPDEST POP POP POP POP POP POP JUMP JUMPDEST PUSH32 0x4E487B7100000000000000000000000000000000000000000000000000000000 PUSH0 MSTORE PUSH1 0x32 PUSH1 0x4 MSTORE PUSH1 0x24 PUSH0 REVERT INVALID LOG2 PUSH5 0x6970667358 0x22 SLT KECCAK256 PUSH18 0x4DDC087A328F0B3D2FC78B2472C03ED0137 0xAF EQ 0x2C 0xE7 DUP9 0xC6 0x27 0xD 0xBF SWAP14 PUSH2 0xA58A PUSH5 0x736F6C6343 STOP ADDMOD EQ STOP CALLER "},"methodIdentifiers":{"getAttendance(uint256)":"b4307e3f","getAttendanceCount()":"a26f8011","getRecords()":"8eff3c29","markAttendance(string,string,bool)":"9b3510d4","records(uint256)":"34461067","teacher()":"b46bff89"}}}}}